{
  "contractName": "SupplyChain",
  "abi": [
    {
      "constant": true,
      "inputs": [],
      "name": "skuCount",
      "outputs": [
        {
          "name": "",
          "type": "uint256"
        }
      ],
      "payable": false,
      "stateMutability": "view",
      "type": "function"
    },
    {
      "constant": true,
      "inputs": [
        {
          "name": "",
          "type": "uint256"
        }
      ],
      "name": "items",
      "outputs": [
        {
          "name": "sku",
          "type": "uint256"
        },
        {
          "name": "name",
          "type": "string"
        },
        {
          "name": "price",
          "type": "uint256"
        },
        {
          "name": "state",
          "type": "uint8"
        },
        {
          "name": "seller",
          "type": "address"
        },
        {
          "name": "buyer",
          "type": "address"
        }
      ],
      "payable": false,
      "stateMutability": "view",
      "type": "function"
    },
    {
      "inputs": [],
      "payable": false,
      "stateMutability": "nonpayable",
      "type": "constructor"
    },
    {
      "anonymous": false,
      "inputs": [
        {
          "indexed": false,
          "name": "sku",
          "type": "uint256"
        }
      ],
      "name": "LogForSale",
      "type": "event"
    },
    {
      "anonymous": false,
      "inputs": [
        {
          "indexed": false,
          "name": "sku",
          "type": "uint256"
        }
      ],
      "name": "LogSold",
      "type": "event"
    },
    {
      "anonymous": false,
      "inputs": [
        {
          "indexed": false,
          "name": "sku",
          "type": "uint256"
        }
      ],
      "name": "LogShipped",
      "type": "event"
    },
    {
      "anonymous": false,
      "inputs": [
        {
          "indexed": false,
          "name": "sku",
          "type": "uint256"
        }
      ],
      "name": "LogReceived",
      "type": "event"
    },
    {
      "constant": false,
      "inputs": [
        {
          "name": "_name",
          "type": "string"
        },
        {
          "name": "_price",
          "type": "uint256"
        }
      ],
      "name": "addItem",
      "outputs": [
        {
          "name": "",
          "type": "bool"
        }
      ],
      "payable": false,
      "stateMutability": "nonpayable",
      "type": "function"
    },
    {
      "constant": false,
      "inputs": [
        {
          "name": "sku",
          "type": "uint256"
        }
      ],
      "name": "buyItem",
      "outputs": [],
      "payable": true,
      "stateMutability": "payable",
      "type": "function"
    },
    {
      "constant": false,
      "inputs": [
        {
          "name": "sku",
          "type": "uint256"
        }
      ],
      "name": "shipItem",
      "outputs": [],
      "payable": false,
      "stateMutability": "nonpayable",
      "type": "function"
    },
    {
      "constant": false,
      "inputs": [
        {
          "name": "sku",
          "type": "uint256"
        }
      ],
      "name": "receiveItem",
      "outputs": [],
      "payable": false,
      "stateMutability": "nonpayable",
      "type": "function"
    },
    {
      "constant": true,
      "inputs": [
        {
          "name": "_sku",
          "type": "uint256"
        }
      ],
      "name": "fetchItem",
      "outputs": [
        {
          "name": "name",
          "type": "string"
        },
        {
          "name": "sku",
          "type": "uint256"
        },
        {
          "name": "price",
          "type": "uint256"
        },
        {
          "name": "state",
          "type": "uint256"
        },
        {
          "name": "seller",
          "type": "address"
        },
        {
          "name": "buyer",
          "type": "address"
        }
      ],
      "payable": false,
      "stateMutability": "view",
      "type": "function"
    }
  ],
  "bytecode": "0x608060405234801561001057600080fd5b50336000806101000a81548173ffffffffffffffffffffffffffffffffffffffff021916908373ffffffffffffffffffffffffffffffffffffffff1602179055506000600181905550611124806100686000396000f3fe608060405260043610610083576000357c0100000000000000000000000000000000000000000000000000000000900463ffffffff168063227024731461008857806362d6bbdf146100b3578063a26be9991461019d578063ad4b9cfb146101d8578063bfb231d214610307578063e7fb74c714610444578063f61c899a14610472575b600080fd5b34801561009457600080fd5b5061009d6104ad565b6040518082815260200191505060405180910390f35b3480156100bf57600080fd5b50610183600480360360408110156100d657600080fd5b81019080803590602001906401000000008111156100f357600080fd5b82018360208201111561010557600080fd5b8035906020019184600183028401116401000000008311171561012757600080fd5b91908080601f016020809104026020016040519081016040528093929190818152602001838380828437600081840152601f19601f820116905080830192505050505050509192919290803590602001909291905050506104b3565b604051808215151515815260200191505060405180910390f35b3480156101a957600080fd5b506101d6600480360360208110156101c057600080fd5b810190808035906020019092919050505061066c565b005b3480156101e457600080fd5b50610211600480360360208110156101fb57600080fd5b8101908080359060200190929190505050610847565b60405180806020018781526020018681526020018581526020018473ffffffffffffffffffffffffffffffffffffffff1673ffffffffffffffffffffffffffffffffffffffff1681526020018373ffffffffffffffffffffffffffffffffffffffff1673ffffffffffffffffffffffffffffffffffffffff168152602001828103825288818151815260200191508051906020019080838360005b838110156102c75780820151818401526020810190506102ac565b50505050905090810190601f1680156102f45780820380516001836020036101000a031916815260200191505b5097505050505050505060405180910390f35b34801561031357600080fd5b506103406004803603602081101561032a57600080fd5b81019080803590602001909291905050506109f2565b604051808781526020018060200186815260200185600381111561036057fe5b60ff1681526020018473ffffffffffffffffffffffffffffffffffffffff1673ffffffffffffffffffffffffffffffffffffffff1681526020018373ffffffffffffffffffffffffffffffffffffffff1673ffffffffffffffffffffffffffffffffffffffff168152602001828103825287818151815260200191508051906020019080838360005b838110156104045780820151818401526020810190506103e9565b50505050905090810190601f1680156104315780820380516001836020036101000a031916815260200191505b5097505050505050505060405180910390f35b6104706004803603602081101561045a57600080fd5b8101908080359060200190929190505050610b13565b005b34801561047e57600080fd5b506104ab6004803603602081101561049557600080fd5b8101908080359060200190929190505050610e79565b005b60015481565b60007f4627c48065af2a9648cbecdd4b9da340c00e501243cd49a8a71c30c987e8b7616001546040518082815260200191505060405180910390a160c06040519081016040528060015481526020018481526020018381526020016000600381111561051b57fe5b81526020013373ffffffffffffffffffffffffffffffffffffffff168152602001600073ffffffffffffffffffffffffffffffffffffffff16815250600260006001548152602001908152602001600020600082015181600001556020820151816001019080519060200190610592929190611053565b506040820151816002015560608201518160030160006101000a81548160ff021916908360038111156105c157fe5b021790555060808201518160030160016101000a81548173ffffffffffffffffffffffffffffffffffffffff021916908373ffffffffffffffffffffffffffffffffffffffff16021790555060a08201518160040160006101000a81548173ffffffffffffffffffffffffffffffffffffffff021916908373ffffffffffffffffffffffffffffffffffffffff16021790555090505060018054016001819055506001905092915050565b806002600381111561067a57fe5b6002600083815260200190815260200160002060030160009054906101000a900460ff1660038111156106a957fe5b14151561071e576040517f08c379a00000000000000000000000000000000000000000000000000000000081526004018080602001828103825260168152602001807f5374617465206973206e6f74202753686970706564270000000000000000000081525060200191505060405180910390fd5b6002600083815260200190815260200160002060040160009054906101000a900473ffffffffffffffffffffffffffffffffffffffff168073ffffffffffffffffffffffffffffffffffffffff163373ffffffffffffffffffffffffffffffffffffffff161415156107d3576040517f08c379a0000000000000000000000000000000000000000000000000000000008152600401808060200182810382526000815260200160200191505060405180910390fd5b60036002600085815260200190815260200160002060030160006101000a81548160ff0219169083600381111561080657fe5b02179055507f5a98827d06afe0e04647b3aed26f1ffb77171ad9ac41603c4ef623a6638798c1836040518082815260200191505060405180910390a1505050565b60606000806000806000600260008881526020019081526020016000206001018054600181600116156101000203166002900480601f0160208091040260200160405190810160405280929190818152602001828054600181600116156101000203166002900480156108fb5780601f106108d0576101008083540402835291602001916108fb565b820191906000526020600020905b8154815290600101906020018083116108de57829003601f168201915b5050505050955060026000888152602001908152602001600020600001549450600260008881526020019081526020016000206002015493506002600088815260200190815260200160002060030160009054906101000a900460ff16600381111561096357fe5b92506002600088815260200190815260200160002060030160019054906101000a900473ffffffffffffffffffffffffffffffffffffffff1691506002600088815260200190815260200160002060040160009054906101000a900473ffffffffffffffffffffffffffffffffffffffff16905085858585858595509550955095509550955091939550919395565b6002602052806000526040600020600091509050806000015490806001018054600181600116156101000203166002900480601f016020809104026020016040519081016040528092919081815260200182805460018160011615610100020316600290048015610aa45780601f10610a7957610100808354040283529160200191610aa4565b820191906000526020600020905b815481529060010190602001808311610a8757829003601f168201915b5050505050908060020154908060030160009054906101000a900460ff16908060030160019054906101000a900473ffffffffffffffffffffffffffffffffffffffff16908060040160009054906101000a900473ffffffffffffffffffffffffffffffffffffffff16905086565b8060006003811115610b2157fe5b6002600083815260200190815260200160002060030160009054906101000a900460ff166003811115610b5057fe5b141515610bc5576040517f08c379a00000000000000000000000000000000000000000000000000000000081526004018080602001828103825260178152602001807f5374617465206973206e6f742027466f722053616c652700000000000000000081525060200191505060405180910390fd5b6002600083815260200190815260200160002060020154803410151515610c7a576040517f08c379a00000000000000000000000000000000000000000000000000000000081526004018080602001828103825260218152602001807f5468652076616c756520737065636966696564206973206e6f7420656e6f756781526020017f680000000000000000000000000000000000000000000000000000000000000081525060400191505060405180910390fd5b8260016002600086815260200190815260200160002060030160006101000a81548160ff02191690836003811115610cae57fe5b0217905550336002600086815260200190815260200160002060040160006101000a81548173ffffffffffffffffffffffffffffffffffffffff021916908373ffffffffffffffffffffffffffffffffffffffff1602179055506002600085815260200190815260200160002060030160019054906101000a900473ffffffffffffffffffffffffffffffffffffffff1673ffffffffffffffffffffffffffffffffffffffff166108fc60026000878152602001908152602001600020600201549081150290604051600060405180830381858888f19350505050158015610d9a573d6000803e3d6000fd5b507fe64ca8c671e48636f85f3008c1dd538e36bfa74fb6f2790b56b72fcc33b879ef846040518082815260200191505060405180910390a1600060026000838152602001908152602001600020600201549050600081340390506002600084815260200190815260200160002060040160009054906101000a900473ffffffffffffffffffffffffffffffffffffffff1673ffffffffffffffffffffffffffffffffffffffff166108fc829081150290604051600060405180830381858888f19350505050158015610e70573d6000803e3d6000fd5b50505050505050565b8060016003811115610e8757fe5b6002600083815260200190815260200160002060030160009054906101000a900460ff166003811115610eb657fe5b141515610f2b576040517f08c379a00000000000000000000000000000000000000000000000000000000081526004018080602001828103825260138152602001807f5374617465206973206e6f742027536f6c64270000000000000000000000000081525060200191505060405180910390fd5b6002600083815260200190815260200160002060030160019054906101000a900473ffffffffffffffffffffffffffffffffffffffff168073ffffffffffffffffffffffffffffffffffffffff163373ffffffffffffffffffffffffffffffffffffffff16141515610fe0576040517f08c379a0000000000000000000000000000000000000000000000000000000008152600401808060200182810382526000815260200160200191505060405180910390fd5b600280600085815260200190815260200160002060030160006101000a81548160ff0219169083600381111561101257fe5b02179055507feaf695929fec8154f0eafe7248c0e16855eb9ad09e623be92f669e544d53e856836040518082815260200191505060405180910390a1505050565b828054600181600116156101000203166002900490600052602060002090601f016020900481019282601f1061109457805160ff19168380011785556110c2565b828001600101855582156110c2579182015b828111156110c15782518255916020019190600101906110a6565b5b5090506110cf91906110d3565b5090565b6110f591905b808211156110f15760008160009055506001016110d9565b5090565b9056fea165627a7a7230582078e69c3e18d3a287e95fc7056a485f22ef97e10c250aca2376b83de56972df0c0029",
  "source": "/*\r\n    This exercise has been updated to use Solidity version 0.5\r\n    Breaking changes from 0.4 to 0.5 can be found here: \r\n    https://solidity.readthedocs.io/en/v0.5.0/050-breaking-changes.html\r\n*/\r\n\r\npragma solidity ^0.5.0;\r\n\r\ncontract SupplyChain {\r\n\r\n    /* set owner */\r\n    address owner;\r\n\r\n    /* Add a variable called skuCount to track the most recent sku # */\r\n    uint public skuCount;\r\n    /* Add a line that creates a public mapping that maps the SKU (a number) to an Item.\r\n    Call this mappings items\r\n    */\r\n    mapping(uint=>Item) public items;\r\n\r\n    /* Add a line that creates an enum called State. This should have 4 states\r\n    ForSale\r\n    Sold\r\n    Shipped\r\n    Received\r\n    (declaring them in this order is important for testing)\r\n    */\r\n    enum State {\r\n        ForSale,\r\n        Sold,\r\n        Shipped,\r\n        Received\r\n    }\r\n\r\n    /* Create a struct named Item.\r\n    Here, add a name, sku, price, state, seller, and buyer\r\n    We've left you to figure out what the appropriate types are,\r\n    if you need help you can ask around :)\r\n    Be sure to add \"payable\" to addresses that will be handling value transfer\r\n    */\r\n    struct Item {\r\n        uint sku;\r\n        string name;\r\n        uint price;\r\n        State state;\r\n        address payable seller;\r\n        address payable buyer;\r\n    }\r\n\r\n    /* Create 4 events with the same name as each possible State (see above)\r\n    Prefix each event with \"Log\" for clarity, so the forSale event will be called \"LogForSale\"\r\n    Each event should accept one argument, the sku */\r\n    event LogForSale(uint sku);\r\n    event LogSold(uint sku);\r\n    event LogShipped(uint sku);\r\n    event LogReceived(uint sku);\r\n\r\n    /* Create a modifer that checks if the msg.sender is the owner of the contract */\r\n    modifier isOwner() {\r\n        require(msg.sender == owner, \"Needs owner permission\");\r\n        _;\r\n    }\r\n    modifier verifyCaller (address _address) {\r\n        require(msg.sender == _address, \"\");\r\n        _;\r\n    }\r\n    modifier paidEnough(uint _price) {\r\n        require(msg.value >= _price, \"The value specified is not enough\");\r\n        _;\r\n    }\r\n    modifier checkValue(uint _sku) {\r\n        //refund them after pay for item (why it is before, _ checks for logic before func)\r\n        _;\r\n        uint _price = items[_sku].price;\r\n        uint amountToRefund = msg.value - _price;\r\n        items[_sku].buyer.transfer(amountToRefund);\r\n    }\r\n\r\n    /* For each of the following modifiers, use what you learned about modifiers\r\n    to give them functionality. For example, the forSale modifier should require\r\n    that the item with the given sku has the state ForSale. */\r\n    modifier forSale(uint sku) {\r\n        require(items[sku].state==State.ForSale, \"State is not 'For Sale'\");\r\n        _;\r\n    }\r\n    modifier sold(uint sku) {\r\n        require(items[sku].state==State.Sold, \"State is not 'Sold'\");\r\n        _;\r\n    }\r\n    modifier shipped(uint sku) {\r\n        require(items[sku].state==State.Shipped, \"State is not 'Shipped'\");\r\n        _;\r\n    }\r\n    modifier received(uint sku) {\r\n        require(items[sku].state==State.Received, \"State is not 'Received'\");\r\n        _;\r\n    }\r\n\r\n\r\n    constructor() public {\r\n        /* Here, set the owner as the person who instantiated the contract\r\n        and set your skuCount to 0. */\r\n        owner = msg.sender;\r\n        skuCount = 0;\r\n    }\r\n\r\n    function addItem(string memory _name, uint _price) public returns(bool){\r\n        emit LogForSale(skuCount);\r\n        items[skuCount] = Item({name: _name, sku: skuCount, price: _price, state: State.ForSale, seller: msg.sender, buyer: address(0)});\r\n        skuCount = skuCount + 1;\r\n        return true;\r\n    }\r\n\r\n    /* Add a keyword so the function can be paid. This function should transfer money\r\n    to the seller, set the buyer as the person who called this transaction, and set the state\r\n    to Sold. Be careful, this function should use 3 modifiers to check if the item is for sale,\r\n    if the buyer paid enough, and check the value after the function is called to make sure the buyer is\r\n    refunded any excess ether sent. Remember to call the event associated with this function!*/\r\n    function buyItem(uint sku) public payable forSale(sku) paidEnough(items[sku].price) checkValue(sku)  {\r\n        items[sku].state = State.Sold;\r\n        items[sku].buyer = msg.sender;\r\n        items[sku].seller.transfer(items[sku].price);\r\n        emit LogSold(sku);\r\n    }\r\n\r\n    /* Add 2 modifiers to check if the item is sold already, and that the person calling this function\r\n    is the seller. Change the state of the item to shipped. Remember to call the event associated with this function!*/\r\n    function shipItem(uint sku) public sold(sku)  verifyCaller(items[sku].seller)  {\r\n        items[sku].state = State.Shipped;\r\n        emit LogShipped(sku);\r\n    }\r\n\r\n    /* Add 2 modifiers to check if the item is shipped already, and that the person calling this function\r\n    is the buyer. Change the state of the item to received. Remember to call the event associated with this function!*/\r\n    function receiveItem(uint sku) public shipped(sku) verifyCaller(items[sku].buyer) {\r\n        items[sku].state = State.Received;\r\n        emit LogReceived(sku);\r\n    }\r\n\r\n    /* We have these functions completed so we can run tests, just ignore it :) */\r\n    function fetchItem(uint _sku) public view returns (string memory name, uint sku, uint price, uint state, address seller, address buyer) {\r\n        name = items[_sku].name;\r\n        sku = items[_sku].sku;\r\n        price = items[_sku].price;\r\n        state = uint(items[_sku].state);\r\n        seller = items[_sku].seller;\r\n        buyer = items[_sku].buyer;\r\n        return (name, sku, price, state, seller, buyer);\r\n    }\r\n\r\n}\r\n",
  "sourcePath": "E:/source/consensys/supply-chain/contracts/SupplyChain.sol",
  "compiler": {
    "name": "solc",
    "version": "0.5.0+commit.1d4f565a.Emscripten.clang"
  },
  "schemaVersion": "3.0.9",
  "updatedAt": "2019-05-26T15:31:01.372Z",
  "devdoc": {
    "methods": {}
  },
  "userdoc": {
    "methods": {}
  }
}